{
  "_format": "hh-sol-artifact-1",
  "contractName": "MultiEscrow",
  "sourceName": "contracts/MultiEscrow.sol",
  "abi": [
    {
      "inputs": [],
      "stateMutability": "nonpayable",
      "type": "constructor"
    },
    {
      "inputs": [],
      "name": "ClaimPeriodNotStarted",
      "type": "error"
    },
    {
      "inputs": [],
      "name": "ERC20TransferFailed",
      "type": "error"
    },
    {
      "inputs": [],
      "name": "EscrowFeeTooHigh",
      "type": "error"
    },
    {
      "inputs": [],
      "name": "InsufficientExcess",
      "type": "error"
    },
    {
      "inputs": [],
      "name": "InvalidFactor",
      "type": "error"
    },
    {
      "inputs": [],
      "name": "InvalidShortString",
      "type": "error"
    },
    {
      "inputs": [],
      "name": "InvalidSignature",
      "type": "error"
    },
    {
      "inputs": [],
      "name": "MustSendFunds",
      "type": "error"
    },
    {
      "inputs": [],
      "name": "NativeNotExpected",
      "type": "error"
    },
    {
      "inputs": [],
      "name": "NativeTransferFailed",
      "type": "error"
    },
    {
      "inputs": [],
      "name": "NoFundsToClaim",
      "type": "error"
    },
    {
      "inputs": [],
      "name": "NoFundsToRelease",
      "type": "error"
    },
    {
      "inputs": [],
      "name": "NotAContract",
      "type": "error"
    },
    {
      "inputs": [],
      "name": "NothingToWithdraw",
      "type": "error"
    },
    {
      "inputs": [],
      "name": "OnlyBuyerOrSeller",
      "type": "error"
    },
    {
      "inputs": [],
      "name": "OnlyOwner",
      "type": "error"
    },
    {
      "inputs": [],
      "name": "ReentrancyGuardReentrantCall",
      "type": "error"
    },
    {
      "inputs": [
        {
          "internalType": "string",
          "name": "str",
          "type": "string"
        }
      ],
      "name": "StringTooLong",
      "type": "error"
    },
    {
      "inputs": [],
      "name": "TradeAlreadyActive",
      "type": "error"
    },
    {
      "inputs": [],
      "name": "TradeIdAlreadyExists",
      "type": "error"
    },
    {
      "inputs": [],
      "name": "TradeNotActive",
      "type": "error"
    },
    {
      "anonymous": false,
      "inputs": [
        {
          "indexed": true,
          "internalType": "bytes32",
          "name": "tradeId",
          "type": "bytes32"
        },
        {
          "indexed": true,
          "internalType": "address",
          "name": "token",
          "type": "address"
        },
        {
          "indexed": false,
          "internalType": "address",
          "name": "seller",
          "type": "address"
        },
        {
          "indexed": false,
          "internalType": "address",
          "name": "buyer",
          "type": "address"
        },
        {
          "indexed": false,
          "internalType": "uint256",
          "name": "paymentAmount",
          "type": "uint256"
        },
        {
          "indexed": false,
          "internalType": "uint256",
          "name": "bondAmount",
          "type": "uint256"
        },
        {
          "indexed": false,
          "internalType": "uint256",
          "name": "paymentFactor",
          "type": "uint256"
        },
        {
          "indexed": false,
          "internalType": "uint256",
          "name": "bondFactor",
          "type": "uint256"
        }
      ],
      "name": "Arbitrated",
      "type": "event"
    },
    {
      "anonymous": false,
      "inputs": [
        {
          "indexed": true,
          "internalType": "bytes32",
          "name": "tradeId",
          "type": "bytes32"
        },
        {
          "indexed": true,
          "internalType": "address",
          "name": "token",
          "type": "address"
        },
        {
          "indexed": false,
          "internalType": "address",
          "name": "seller",
          "type": "address"
        },
        {
          "indexed": false,
          "internalType": "address",
          "name": "buyer",
          "type": "address"
        },
        {
          "indexed": false,
          "internalType": "uint256",
          "name": "paymentAmount",
          "type": "uint256"
        },
        {
          "indexed": false,
          "internalType": "uint256",
          "name": "bondAmount",
          "type": "uint256"
        }
      ],
      "name": "Claimed",
      "type": "event"
    },
    {
      "anonymous": false,
      "inputs": [],
      "name": "EIP712DomainChanged",
      "type": "event"
    },
    {
      "anonymous": false,
      "inputs": [
        {
          "indexed": true,
          "internalType": "address",
          "name": "previousOwner",
          "type": "address"
        },
        {
          "indexed": true,
          "internalType": "address",
          "name": "newOwner",
          "type": "address"
        }
      ],
      "name": "OwnershipTransferred",
      "type": "event"
    },
    {
      "anonymous": false,
      "inputs": [
        {
          "indexed": true,
          "internalType": "bytes32",
          "name": "tradeId",
          "type": "bytes32"
        },
        {
          "indexed": true,
          "internalType": "address",
          "name": "token",
          "type": "address"
        },
        {
          "indexed": false,
          "internalType": "address",
          "name": "from",
          "type": "address"
        },
        {
          "indexed": false,
          "internalType": "address",
          "name": "to",
          "type": "address"
        },
        {
          "indexed": false,
          "internalType": "uint256",
          "name": "amount",
          "type": "uint256"
        }
      ],
      "name": "ReleasedToCounterparty",
      "type": "event"
    },
    {
      "anonymous": false,
      "inputs": [
        {
          "indexed": true,
          "internalType": "bytes32",
          "name": "tradeId",
          "type": "bytes32"
        },
        {
          "indexed": true,
          "internalType": "address",
          "name": "token",
          "type": "address"
        },
        {
          "indexed": false,
          "internalType": "address",
          "name": "seller",
          "type": "address"
        },
        {
          "indexed": false,
          "internalType": "address",
          "name": "buyer",
          "type": "address"
        },
        {
          "indexed": true,
          "internalType": "address",
          "name": "arbiter",
          "type": "address"
        },
        {
          "indexed": false,
          "internalType": "uint256",
          "name": "paymentAmount",
          "type": "uint256"
        },
        {
          "indexed": false,
          "internalType": "uint256",
          "name": "bondAmount",
          "type": "uint256"
        },
        {
          "indexed": false,
          "internalType": "uint256",
          "name": "unlockAt",
          "type": "uint256"
        },
        {
          "indexed": false,
          "internalType": "uint256",
          "name": "escrowFee",
          "type": "uint256"
        }
      ],
      "name": "TradeCreated",
      "type": "event"
    },
    {
      "anonymous": false,
      "inputs": [
        {
          "indexed": true,
          "internalType": "address",
          "name": "beneficiary",
          "type": "address"
        },
        {
          "indexed": true,
          "internalType": "address",
          "name": "token",
          "type": "address"
        },
        {
          "indexed": false,
          "internalType": "address",
          "name": "destination",
          "type": "address"
        },
        {
          "indexed": false,
          "internalType": "uint256",
          "name": "amount",
          "type": "uint256"
        }
      ],
      "name": "Withdrawn",
      "type": "event"
    },
    {
      "inputs": [],
      "name": "FACTOR_SCALE",
      "outputs": [
        {
          "internalType": "uint256",
          "name": "",
          "type": "uint256"
        }
      ],
      "stateMutability": "view",
      "type": "function"
    },
    {
      "inputs": [
        {
          "internalType": "bytes32",
          "name": "tradeId",
          "type": "bytes32"
        }
      ],
      "name": "activeTrade",
      "outputs": [
        {
          "internalType": "bool",
          "name": "isActive",
          "type": "bool"
        },
        {
          "components": [
            {
              "internalType": "address",
              "name": "buyer",
              "type": "address"
            },
            {
              "internalType": "address",
              "name": "seller",
              "type": "address"
            },
            {
              "internalType": "address",
              "name": "arbiter",
              "type": "address"
            },
            {
              "internalType": "address",
              "name": "token",
              "type": "address"
            },
            {
              "internalType": "uint256",
              "name": "paymentAmount",
              "type": "uint256"
            },
            {
              "internalType": "uint256",
              "name": "bondAmount",
              "type": "uint256"
            },
            {
              "internalType": "uint256",
              "name": "unlockAt",
              "type": "uint256"
            },
            {
              "internalType": "uint256",
              "name": "escrowFee",
              "type": "uint256"
            }
          ],
          "internalType": "struct MultiEscrow.Trade",
          "name": "trade",
          "type": "tuple"
        }
      ],
      "stateMutability": "view",
      "type": "function"
    },
    {
      "inputs": [],
      "name": "activeTradeCount",
      "outputs": [
        {
          "internalType": "uint256",
          "name": "",
          "type": "uint256"
        }
      ],
      "stateMutability": "view",
      "type": "function"
    },
    {
      "inputs": [
        {
          "internalType": "bytes32",
          "name": "tradeId",
          "type": "bytes32"
        },
        {
          "internalType": "uint256",
          "name": "paymentFactor",
          "type": "uint256"
        },
        {
          "internalType": "uint256",
          "name": "bondFactor",
          "type": "uint256"
        },
        {
          "internalType": "bytes",
          "name": "signature",
          "type": "bytes"
        }
      ],
      "name": "arbitrate",
      "outputs": [],
      "stateMutability": "nonpayable",
      "type": "function"
    },
    {
      "inputs": [
        {
          "internalType": "address",
          "name": "user",
          "type": "address"
        }
      ],
      "name": "balanceOf",
      "outputs": [
        {
          "internalType": "address[]",
          "name": "tokens",
          "type": "address[]"
        },
        {
          "internalType": "uint256[]",
          "name": "amounts",
          "type": "uint256[]"
        }
      ],
      "stateMutability": "view",
      "type": "function"
    },
    {
      "inputs": [
        {
          "internalType": "address",
          "name": "",
          "type": "address"
        },
        {
          "internalType": "address",
          "name": "",
          "type": "address"
        }
      ],
      "name": "balances",
      "outputs": [
        {
          "internalType": "uint256",
          "name": "",
          "type": "uint256"
        }
      ],
      "stateMutability": "view",
      "type": "function"
    },
    {
      "inputs": [
        {
          "internalType": "bytes32",
          "name": "tradeId",
          "type": "bytes32"
        },
        {
          "internalType": "bytes",
          "name": "signature",
          "type": "bytes"
        }
      ],
      "name": "claim",
      "outputs": [],
      "stateMutability": "nonpayable",
      "type": "function"
    },
    {
      "inputs": [
        {
          "internalType": "bytes32",
          "name": "tradeId",
          "type": "bytes32"
        },
        {
          "internalType": "address",
          "name": "_buyer",
          "type": "address"
        },
        {
          "internalType": "address",
          "name": "_seller",
          "type": "address"
        },
        {
          "internalType": "address",
          "name": "_arbiter",
          "type": "address"
        },
        {
          "internalType": "address",
          "name": "_token",
          "type": "address"
        },
        {
          "internalType": "uint256",
          "name": "_paymentAmount",
          "type": "uint256"
        },
        {
          "internalType": "uint256",
          "name": "_bondAmount",
          "type": "uint256"
        },
        {
          "internalType": "uint256",
          "name": "_unlockAt",
          "type": "uint256"
        },
        {
          "internalType": "uint256",
          "name": "_escrowFee",
          "type": "uint256"
        }
      ],
      "name": "createTrade",
      "outputs": [],
      "stateMutability": "payable",
      "type": "function"
    },
    {
      "inputs": [],
      "name": "eip712Domain",
      "outputs": [
        {
          "internalType": "bytes1",
          "name": "fields",
          "type": "bytes1"
        },
        {
          "internalType": "string",
          "name": "name",
          "type": "string"
        },
        {
          "internalType": "string",
          "name": "version",
          "type": "string"
        },
        {
          "internalType": "uint256",
          "name": "chainId",
          "type": "uint256"
        },
        {
          "internalType": "address",
          "name": "verifyingContract",
          "type": "address"
        },
        {
          "internalType": "bytes32",
          "name": "salt",
          "type": "bytes32"
        },
        {
          "internalType": "uint256[]",
          "name": "extensions",
          "type": "uint256[]"
        }
      ],
      "stateMutability": "view",
      "type": "function"
    },
    {
      "inputs": [],
      "name": "getActiveTradeIds",
      "outputs": [
        {
          "internalType": "bytes32[]",
          "name": "",
          "type": "bytes32[]"
        }
      ],
      "stateMutability": "view",
      "type": "function"
    },
    {
      "inputs": [
        {
          "internalType": "uint256",
          "name": "offset",
          "type": "uint256"
        },
        {
          "internalType": "uint256",
          "name": "limit",
          "type": "uint256"
        }
      ],
      "name": "getActiveTradeIdsPage",
      "outputs": [
        {
          "internalType": "bytes32[]",
          "name": "ids",
          "type": "bytes32[]"
        }
      ],
      "stateMutability": "view",
      "type": "function"
    },
    {
      "inputs": [],
      "name": "owner",
      "outputs": [
        {
          "internalType": "address",
          "name": "",
          "type": "address"
        }
      ],
      "stateMutability": "view",
      "type": "function"
    },
    {
      "inputs": [
        {
          "internalType": "bytes32",
          "name": "tradeId",
          "type": "bytes32"
        },
        {
          "internalType": "address",
          "name": "actor",
          "type": "address"
        },
        {
          "internalType": "bytes",
          "name": "signature",
          "type": "bytes"
        }
      ],
      "name": "releaseToCounterparty",
      "outputs": [],
      "stateMutability": "nonpayable",
      "type": "function"
    },
    {
      "inputs": [
        {
          "internalType": "address",
          "name": "token",
          "type": "address"
        },
        {
          "internalType": "address",
          "name": "to",
          "type": "address"
        },
        {
          "internalType": "uint256",
          "name": "amount",
          "type": "uint256"
        }
      ],
      "name": "rescueERC20",
      "outputs": [],
      "stateMutability": "nonpayable",
      "type": "function"
    },
    {
      "inputs": [
        {
          "internalType": "address",
          "name": "",
          "type": "address"
        }
      ],
      "name": "totalPending",
      "outputs": [
        {
          "internalType": "uint256",
          "name": "",
          "type": "uint256"
        }
      ],
      "stateMutability": "view",
      "type": "function"
    },
    {
      "inputs": [
        {
          "internalType": "bytes32",
          "name": "",
          "type": "bytes32"
        }
      ],
      "name": "trades",
      "outputs": [
        {
          "internalType": "address",
          "name": "buyer",
          "type": "address"
        },
        {
          "internalType": "address",
          "name": "seller",
          "type": "address"
        },
        {
          "internalType": "address",
          "name": "arbiter",
          "type": "address"
        },
        {
          "internalType": "address",
          "name": "token",
          "type": "address"
        },
        {
          "internalType": "uint256",
          "name": "paymentAmount",
          "type": "uint256"
        },
        {
          "internalType": "uint256",
          "name": "bondAmount",
          "type": "uint256"
        },
        {
          "internalType": "uint256",
          "name": "unlockAt",
          "type": "uint256"
        },
        {
          "internalType": "uint256",
          "name": "escrowFee",
          "type": "uint256"
        }
      ],
      "stateMutability": "view",
      "type": "function"
    },
    {
      "inputs": [
        {
          "internalType": "address",
          "name": "newOwner",
          "type": "address"
        }
      ],
      "name": "transferOwnership",
      "outputs": [],
      "stateMutability": "nonpayable",
      "type": "function"
    },
    {
      "inputs": [
        {
          "internalType": "address",
          "name": "token",
          "type": "address"
        },
        {
          "internalType": "address",
          "name": "beneficiary",
          "type": "address"
        },
        {
          "internalType": "address",
          "name": "destination",
          "type": "address"
        },
        {
          "internalType": "bytes",
          "name": "signature",
          "type": "bytes"
        }
      ],
      "name": "withdraw",
      "outputs": [],
      "stateMutability": "nonpayable",
      "type": "function"
    },
    {
      "stateMutability": "payable",
      "type": "receive"
    }
  ],
  "bytecode": "0x610160604052346101675760405161001860408261016b565b60118152602081019070486f737472204d756c7469457363726f7760781b82526040519161004760408461016b565b600183526020830191601b60f91b8352610060816101a2565b6101205261006d84610338565b61014052519020918260e05251902080610100524660a0526040519060208201927f8b73c3c69bb8fe3d512ecc4cf759cc79239f7b179b0ffacaa9a75d522b39400f8452604083015260608201524660808201523060a082015260a081526100d660c08261016b565b5190206080523060c05260017f9b779b17422d0df92223018b32b4d1fa46e071723d6817e2486d003becc55f0055600280546001600160a01b031916331790556040516122aa90816104718239608051816120b5015260a05181612172015260c0518161207f015260e051816121040152610100518161212a015261012051816107d7015261014051816108030152f35b5f80fd5b601f909101601f19168101906001600160401b0382119082101761018e57604052565b634e487b7160e01b5f52604160045260245ffd5b908151602081105f1461021c575090601f8151116101dc5760208151910151602082106101cd571790565b5f198260200360031b1b161790565b604460209160405192839163305a27a960e01b83528160048401528051918291826024860152018484015e5f828201840152601f01601f19168101030190fd5b6001600160401b03811161018e575f54600181811c9116801561032e575b602082101461031a57601f81116102e8575b50602092601f821160011461028957928192935f9261027e575b50508160011b915f199060031b1c1916175f5560ff90565b015190505f80610266565b601f198216935f8052805f20915f5b8681106102d057508360019596106102b8575b505050811b015f5560ff90565b01515f1960f88460031b161c191690555f80806102ab565b91926020600181928685015181550194019201610298565b5f8052601f60205f20910160051c810190601f830160051c015b81811061030f575061024c565b5f8155600101610302565b634e487b7160e01b5f52602260045260245ffd5b90607f169061023a565b908151602081105f14610363575090601f8151116101dc5760208151910151602082106101cd571790565b6001600160401b03811161018e57600154600181811c91168015610466575b602082101461031a57601f8111610433575b50602092601f82116001146103d257928192935f926103c7575b50508160011b915f199060031b1c19161760015560ff90565b015190505f806103ae565b601f1982169360015f52805f20915f5b86811061041b5750836001959610610403575b505050811b0160015560ff90565b01515f1960f88460031b161c191690555f80806103f5565b919260206001819286850151815501940192016103e2565b60015f52601f60205f20910160051c810190601f830160051c015b81811061045b5750610394565b5f815560010161044e565b90607f169061038256fe608080604052600436101561001c575b50361561001a575f80fd5b005b5f3560e01c908162162420146113fc575080631ca82a93146112ac578063366079581461106b5780634917339814610bc957806356c48e8314610ba757806370a08231146109fd5780637d075efb1461088c57806384b0196e146107bf5780638da5cb5b14610797578063a1fb63451461077b578063b2118a8d146105f6578063b732d9c21461041d578063c1b64f74146103e5578063c23f001f14610395578063cedc447814610378578063f0331024146101f3578063f2fde38b146101755763f4298124146100ed575f61000f565b34610171575f3660031901126101715760405180602060045491828152019060045f527f8a35acfbc15ff81a39ae7d344fd709f28e8600b4aa8c65c6b64bfe7fe36bd19b905f5b81811061015b576101578561014b818703826115ac565b604051918291826114ff565b0390f35b8254845260209093019260019283019201610134565b5f80fd5b346101715760203660031901126101715761018e6114e9565b6002546001600160a01b03811691338390036101e4576001600160a01b03169182907f8be0079c531659141344cd1fd0a4f28419497f9722a3daafe3b4186f6b6457e05f80a36001600160a01b03191617600255005b635fc483c560e01b5f5260045ffd5b346101715760403660031901126101715760043560243567ffffffffffffffff81116101715761022a61029491369060040161148f565b90610233611751565b835f52600360205260018060a01b03600160405f2001541660405160208101907fca0316b2e6fe705913ddab20d140cadd891522328f82a68270eff03d1d1e4c2682528660408201526040815261028b6060826115ac565b519020906117a5565b805f52600360205260405f20906006820154421115610369576004820154600583018054906102c382846115ce565b1561035a576001850154855460038701546007909701546001600160a01b03978816977fb763f92e82e910990fe3838dcc63b5da01a54f37c07ced5384f1297294b332bd96608096948216959390911693929161032e9161032491906115ef565b928484878b611a0e565b505491604051938452602084015260408301526060820152a360015f5160206122555f395f51905f5255005b63dff46e2b60e01b5f5260045ffd5b63916da0d160e01b5f5260045ffd5b34610171575f366003190112610171576020600454604051908152f35b34610171576040366003190112610171576103ae6114e9565b6103b66114bd565b6001600160a01b039182165f908152600660209081526040808320949093168252928352819020549051908152f35b34610171576020366003190112610171576001600160a01b036104066114e9565b165f526009602052602060405f2054604051908152f35b34610171576060366003190112610171576004356104396114bd565b9060443567ffffffffffffffff81116101715761045d6104c191369060040161148f565b610468929192611751565b60405192602084017f93070a1972ace1f2a527268212dc14d04214db9d62da685be62a43c92ad499de815285604086015260018060a01b03871694856060820152606081526104b86080826115ac565b519020866117a5565b815f52600360205260405f206104e060048201546005830154906115ce565b9384156105e757600382015460018301546001600160a01b0391821696911693808503610597575082547f07ef9f79b306ce9a89bf8e1f834a172a0a005ac528a32962db99b24acb9933ab94506001600160a01b0316926105819161054b916007905b0154906115ef565b61055681858861181c565b50604080516001600160a01b0394851681529490931660208501529183019190915281906060820190565b0390a360015f5160206122555f395f51905f5255005b83546001600160a01b0316036105d85761054b6105819160077f07ef9f79b306ce9a89bf8e1f834a172a0a005ac528a32962db99b24acb9933ab9695610543565b631cfe2f0560e11b5f5260045ffd5b632df308af60e21b5f5260045ffd5b346101715760603660031901126101715761060f6114e9565b6106176114bd565b60025460443591906001600160a01b031633036101e4576001600160a01b038316801561076c57833b1561075d575f6004545f5b8181106106fd57505090602061066f602493835f526009835260405f2054906115ce565b91604051938480926370a0823160e01b82523060048301525afa80156106f2575f906106be575b6106a092506115ef565b82116106af5761001a92611c1b565b63638ffa3960e01b5f5260045ffd5b506020823d6020116106ea575b816106d8602093836115ac565b81010312610171576106a09151610696565b3d91506106cb565b6040513d5f823e3d90fd5b61070681611659565b90549060031b1c5f52600360205260405f208460018060a01b0360038301541614610735575b5060010161064b565b600191936107508260056004610756950154910154906115ce565b906115ce565b929061072c565b6309ee12d560e01b5f5260045ffd5b631da012b760e11b5f5260045ffd5b34610171575f3660031901126101715760206040516103e88152f35b34610171575f366003190112610171576002546040516001600160a01b039091168152602090f35b34610171575f3660031901126101715761085e6107fb7f0000000000000000000000000000000000000000000000000000000000000000611e86565b6101576108277f0000000000000000000000000000000000000000000000000000000000000000611fac565b61086c604051916108396020846115ac565b5f83525f368137604051958695600f60f81b875260e0602088015260e087019061156b565b90858203604087015261156b565b904660608501523060808501525f60a085015283820360c0850152611538565b34610171576080366003190112610171576108a56114e9565b6108ad6114bd565b906108b66114d3565b906064359267ffffffffffffffff8411610171576108db61094794369060040161148f565b6108e6959195611751565b60405195602087017f9e4e8028071c202ab032dcdb0b97cb872ad34aed0c18fe44cd759252daacd38f815260018060a01b0386169788604082015260018060a01b03881660608201526060815261093e6080826115ac565b519020846117a5565b60018060a01b031691825f52600660205260405f20845f5260205260405f20549081156109ee576109cb82827fa4195c37c2947bbe89165f03e320b6903116f0b10d8cfdb522330f7ce6f9fa2495875f52600660205260405f20895f526020525f6040812055885f52600960205260405f206109c48482546115ef565b9055611c1b565b604080516001600160a01b03909216825260208201929092529081908101610581565b630686827b60e51b5f5260045ffd5b34610171576020366003190112610171576001600160a01b03610a1e6114e9565b16805f52600760205260405f20908154915f925f5b818110610b585750610a448461160f565b92610a5260405194856115ac565b848452610a73610a618661160f565b602086019690601f1901368837611627565b925f915f5b848110610ad55787878760405191604083019060408452518091526060830193905f5b818110610ab657848061015788878382036020850152611538565b82516001600160a01b0316865260209586019590920191600101610a9b565b815f52600660205260405f20610aeb8285611685565b905460039190911b1c6001600160a01b03165f908152602091909152604090205480610b1b575b50600101610a78565b819460019291610b2c849387611685565b848060a01b0391549060031b1c16610b44838c61169a565b52610b4f828a61169a565b52019390610b12565b835f52600660205260405f20610b6e8285611685565b905460039190911b1c6001600160a01b03165f9081526020919091526040902054610b9c575b600101610a33565b600190940193610b94565b346101715760403660031901126101715761015761014b6024356004356116ae565b61012036600319011261017157600435610be16114bd565b90610bea6114d3565b906064359260018060a01b038416809403610171576084356001600160a01b038116939091908483036101715760e4356101043560a435610c29611751565b610c3560c435826115ce565b9588610ef2575034955b80159182610ee457610c5190886115fc565b91610ed057610c62910480966115ef565b5f878152600360205260409020549092906001600160a01b0316610ec157610c8a83876115ce565b15610eb257858211610ea357604051610ca28161158f565b60018060a01b03861681526007886020830160018060a01b0388168152604084018d8152606085018d815260808601908c825260a08701928a845260c088019489865260e08901968b88525f52600360205260405f209860018060a01b039060018060a01b03905116166001600160601b0360a01b8a541617895560018060a01b03905116600189019060018060a01b03166001600160601b0360a01b82541617905560018060a01b03905116600288019060018060a01b03166001600160601b0360a01b82541617905560018060a01b03905116600387019060018060a01b03166001600160601b0360a01b82541617905551600486015551600585015551600684015551910155865f52600560205260405f2054610e945760045492600160401b841015610e80577ffd8752e4e049ee02b8549097455a8a38b6efe978ff5e89e91760cc6cd9c330739688610e1b610e05876001610e6a9901600455611659565b819391549060031b91821b915f19901b19161790565b9055600454895f52600560205260405f2055604051968796879260a094919796959260c0850198600180881b03168552600180871b031660208501526040840152606083015260808201520152565b0390a460015f5160206122555f395f51905f5255005b634e487b7160e01b5f52604160045260245ffd5b636525c56b60e11b5f5260045ffd5b631d27ff1d60e11b5f5260045ffd5b6329ce3ded60e01b5f5260045ffd5b631d417ab760e21b5f5260045ffd5b634e487b7160e01b5f52601260045260245ffd5b505050610c625f80966115ef565b3461076c576040516370a0823160e01b8152306004820152906020826024818d5afa9182156106f2575f92611037575b50803b1561075d576040516323b872dd60e01b60208201908152336024830152306044830152606482018a90525f9283929091908390610f6f81608481015b03601f1981018352826115ac565b51925af1610f7b611bd4565b9015908115611007575b50610ff8576040516370a0823160e01b8152306004820152906020826024818d5afa80156106f2575f90610fc4575b610fbe92506115ef565b95610c3f565b506020823d602011610ff0575b81610fde602093836115ac565b8101031261017157610fbe9151610fb4565b3d9150610fd1565b633c9fd93960e21b5f5260045ffd5b805180151592508261101c575b50508b610f85565b61102f9250602080918301019101611c03565b158b80611014565b9091506020813d602011611063575b81611053602093836115ac565b810103126101715751908b610f22565b3d9150611046565b346101715760803660031901126101715760243560043560443560643567ffffffffffffffff8111610171576110a861111591369060040161148f565b906110b1611751565b845f52600360205260018060a01b03600260405f2001541660405160208101907f3492f23b8c1918f3d17b7bf25f8529e85a71121d362cb34a1114b1ad6a548f1182528760408201528860608201528660808201526080815261028b60a0826115ac565b815f52600360205260405f2060405161112d8161158f565b81546001600160a01b0390811682526001830154811660208301908152600284015482166040840152600384015490911660608301908152600484015460808401818152600586015460a08601818152600688015460c088015260079097015460e087019081529499939791969193926111a791906115ce565b156105e7576103e8821161129d576103e8831161129d577f04e2ff8542352e4f8e62c6deb046b9feb94d4b5dcd073d65ca2bca9700f91a73966112596111f46105819689519051906115ef565b61120c6103e861120487846115fc565b0480926115ef565b8c61125261123e6103e86112218b8a516115fc565b0461122d818a516115ef565b93516001600160a01b0316956115ce565b8b516001600160a01b0316939092906115ce565b928d611a0e565b50519851945195519051604080516001600160a01b03978816815297871660208901528701919091526060860152608085015260a0840152941693819060c0820190565b631fdc37f160e11b5f5260045ffd5b34610171576020366003190112610171575f60e06040516112cc8161158f565b8281528260208201528260408201528260608201528260808201528260a08201528260c082015201526004355f52600360205261012060405f20604051906113138261158f565b80546001600160a01b0390811680845260018301548216602085019081526002840154831660408601908152600385015490931660608601908152600485015460808701818152600587015460a08901818152600689015460c08b0190815260079099015460e08b0190815296151599969897909692959093909291908a6113e7575b5050604080519915158a5290516001600160a01b0390811660208b0152915182169089015290518116606088015290511660808601525160a08501525160c08401525160e083015251610100820152f35b6113f2929a506115ce565b1515978a80611396565b3461017157602036600319011261017157610100906004355f52600360205260405f2060018060a01b038154169060018060a01b0360018201541660018060a01b0360028301541660018060a01b0360038401541660048401549160058501549360076006870154960154968852602088015260408701526060860152608085015260a084015260c083015260e0820152f35b9181601f840112156101715782359167ffffffffffffffff8311610171576020838186019501011161017157565b602435906001600160a01b038216820361017157565b604435906001600160a01b038216820361017157565b600435906001600160a01b038216820361017157565b60206040818301928281528451809452019201905f5b8181106115225750505090565b8251845260209384019390920191600101611515565b90602080835192838152019201905f5b8181106115555750505090565b8251845260209384019390920191600101611548565b805180835260209291819084018484015e5f828201840152601f01601f1916010190565b610100810190811067ffffffffffffffff821117610e8057604052565b90601f8019910116810190811067ffffffffffffffff821117610e8057604052565b919082018092116115db57565b634e487b7160e01b5f52601160045260245ffd5b919082039182116115db57565b818102929181159184041417156115db57565b67ffffffffffffffff8111610e805760051b60200190565b906116318261160f565b61163e60405191826115ac565b828152809261164f601f199161160f565b0190602036910137565b6004548110156116715760045f5260205f2001905f90565b634e487b7160e01b5f52603260045260245ffd5b8054821015611671575f5260205f2001905f90565b80518210156116715760209160051b010190565b919060045490818410801590611749575b61172d576116cd90846115ce565b90808211611725575b506116e96116e484836115ef565b611627565b92805b8281106116f857505050565b80611704600192611659565b90549060031b1c61171e61171885846115ef565b8861169a565b52016116ec565b90505f6116d6565b5050905060405161173f6020826115ac565b5f81525f36813790565b5080156116bf565b60025f5160206122555f395f51905f52541461177a5760025f5160206122555f395f51905f5255565b633ee5aeb560e01b5f5260045ffd5b67ffffffffffffffff8111610e8057601f01601f191660200190565b906042909392936117b461207c565b906040519161190160f01b83526002830152602282015220906117d683611789565b926117e460405194856115ac565b8084523681860111610171576020815f92611806978388013785010152611cfc565b1561180d57565b638baa579f60e01b5f5260045ffd5b9291835f52600360205260405f2090604051926118388461158f565b60018060a01b03835416845260018060a01b03600184015416602085015260e060018060a01b036002850154169460408101958652600760018060a01b036003870154169586606084015260048101546080840152600581015460a0840152600681015460c0840152015491829101528096805f52600560205260405f205480156119ff575f1981016004545f1981019081116115db578082036119c5575b50505060045480156119b1575f19016118ef81611659565b8154905f199060031b1b19169055600455805f5260056020525f60408120555f5260036020525f60076040822082815582600182015582600282015582600382015582600482015582600582015582600682015501555f948161198e575b505081611971575b50505f52600960205261196d60405f209182546115ce565b9055565b9261198182846119869596611d91565b6115ce565b905f80611955565b51919450906119a990829085906001600160a01b0316611d91565b925f8061194d565b634e487b7160e01b5f52603160045260245ffd5b6119cf8391611659565b90549060031b1c91826119e4610e0583611659565b9055116115db575f52600560205260405f20555f80806118d7565b632e57177f60e21b5f5260045ffd5b94939092855f52600360205260405f209260405194611a2c8661158f565b60018060a01b03855416865260018060a01b03600186015416602087015260e060018060a01b036002870154169660408101978852600760018060a01b036003890154169788606084015260048101546080840152600581015460a0840152600681015460c0840152015491829101528098805f52600560205260405f205480156119ff575f1981016004545f1981019081116115db57808203611b9a575b50505060045480156119b1575f1901611ae381611659565b8154905f199060031b1b19169055600455805f5260056020525f60408120555f5260036020525f60076040822082815582600182015582600282015582600382015582600482015582600582015582600682015501555f9681611b77575b505081611b67575050816119715750505f52600960205261196d60405f209182546115ce565b9461198182866119a99598611d91565b5191965090611b9290829087906001600160a01b0316611d91565b945f80611b41565b611ba48391611659565b90549060031b1c9182611bb9610e0583611659565b9055116115db575f52600560205260405f20555f8080611acb565b3d15611bfe573d90611be582611789565b91611bf360405193846115ac565b82523d5f602084013e565b606090565b90816020910312610171575180151581036101715790565b9190918115611cf7576001600160a01b038116611c6657505f91829182918291906001600160a01b03165af1611c4f611bd4565b5015611c5757565b633d2cec6f60e21b5f5260045ffd5b803b1561075d5760405163a9059cbb60e01b602082019081526001600160a01b03909416602482015260448101929092525f9283928390611caa8160648101610f61565b51925af1611cb6611bd4565b9015908115611cc7575b50610ff857565b8051801515925082611cdc575b50505f611cc0565b611cef9250602080918301019101611c03565b155f80611cd4565b505050565b9190823b611d4b5790611d0e91612198565b506004811015611d3757159182611d2457505090565b6001600160a01b03918216911614919050565b634e487b7160e01b5f52602160045260245ffd5b916020926064835f94519060405193630b135d3f60e11b855260048501526040602485015286820190604485015e01915afa630b135d3f60e11b5f5114601f3d11161690565b91909181158015611e75575b611cf75760018060a01b031690815f52600660205260405f2060018060a01b0384165f52602052611dd360405f209182546115ce565b9055805f52600860205260405f2060018060a01b0383165f5260205260ff60405f20541615611e00575050565b5f8181526008602090815260408083206001600160a01b03861684528252808320805460ff1916600117905592825260079052208054600160401b811015610e8057611e5191600182018155611685565b81546001600160a01b0393841660039290921b91821b9390911b1916919091179055565b506001600160a01b03811615611d9d565b60ff8114611ecc5760ff811690601f8211611ebd5760405191611eaa6040846115ac565b6020808452838101919036833783525290565b632cd44ac360e21b5f5260045ffd5b506040515f5f548060011c9160018216918215611fa2575b602084108314611f8e578385528492908115611f6f5750600114611f12575b611f0f925003826115ac565b90565b505f80805290917f290decd9548b62a8d60345a988386fc84ba6bc95484008f6362f93160ef3e5635b818310611f53575050906020611f0f92820101611f03565b6020919350806001915483858801015201910190918392611f3b565b60209250611f0f94915060ff191682840152151560051b820101611f03565b634e487b7160e01b5f52602260045260245ffd5b92607f1692611ee4565b60ff8114611fd05760ff811690601f8211611ebd5760405191611eaa6040846115ac565b506040515f6001548060011c9160018216918215612072575b602084108314611f8e578385528492908115611f6f575060011461201357611f0f925003826115ac565b5060015f90815290917fb10e2d527612073b26eecdfd717e6a320cf44b4afac2b0732d9fcbe2b7fa0cf65b818310612056575050906020611f0f92820101611f03565b602091935080600191548385880101520191019091839261203e565b92607f1692611fe9565b307f00000000000000000000000000000000000000000000000000000000000000006001600160a01b0316148061216f575b156120d7577f000000000000000000000000000000000000000000000000000000000000000090565b60405160208101907f8b73c3c69bb8fe3d512ecc4cf759cc79239f7b179b0ffacaa9a75d522b39400f82527f000000000000000000000000000000000000000000000000000000000000000060408201527f000000000000000000000000000000000000000000000000000000000000000060608201524660808201523060a082015260a0815261216960c0826115ac565b51902090565b507f000000000000000000000000000000000000000000000000000000000000000046146120ae565b81519190604183036121c8576121c19250602082015190606060408401519301515f1a906121d2565b9192909190565b50505f9160029190565b91907f7fffffffffffffffffffffffffffffff5d576e7357a4501ddfe92f46681b20a08411612249579160209360809260ff5f9560405194855216868401526040830152606082015282805260015afa156106f2575f516001600160a01b0381161561223f57905f905f90565b505f906001905f90565b5050505f916003919056fe9b779b17422d0df92223018b32b4d1fa46e071723d6817e2486d003becc55f00a2646970667358221220eef7be0074251ca541db86a3ebd198ec11652c744f1bb66cbd2f09dbe0eef85964736f6c634300081c0033",
  "linkReferences": {},
  "deployedLinkReferences": {}
}