{
  "_format": "hh-sol-artifact-1",
  "contractName": "MultiAuction",
  "sourceName": "contracts/MultiAuction.sol",
  "abi": [
    {
      "inputs": [],
      "stateMutability": "nonpayable",
      "type": "constructor"
    },
    {
      "inputs": [],
      "name": "AuctionAlreadySettled",
      "type": "error"
    },
    {
      "inputs": [],
      "name": "AuctionEnded",
      "type": "error"
    },
    {
      "inputs": [],
      "name": "AuctionNotEnded",
      "type": "error"
    },
    {
      "inputs": [],
      "name": "AuctionNotFound",
      "type": "error"
    },
    {
      "inputs": [],
      "name": "AuctionParamsChanged",
      "type": "error"
    },
    {
      "inputs": [],
      "name": "BidTooLow",
      "type": "error"
    },
    {
      "inputs": [],
      "name": "ERC20TransferFailed",
      "type": "error"
    },
    {
      "inputs": [],
      "name": "EscrowFeeTooHigh",
      "type": "error"
    },
    {
      "inputs": [],
      "name": "InvalidBidder",
      "type": "error"
    },
    {
      "inputs": [],
      "name": "InvalidShortString",
      "type": "error"
    },
    {
      "inputs": [],
      "name": "InvalidSignature",
      "type": "error"
    },
    {
      "inputs": [],
      "name": "MustSendExactNativeAmount",
      "type": "error"
    },
    {
      "inputs": [],
      "name": "NativeTransferFailed",
      "type": "error"
    },
    {
      "inputs": [],
      "name": "NotAContract",
      "type": "error"
    },
    {
      "inputs": [],
      "name": "NothingToWithdraw",
      "type": "error"
    },
    {
      "inputs": [],
      "name": "OnlyOwner",
      "type": "error"
    },
    {
      "inputs": [],
      "name": "ReentrancyGuardReentrantCall",
      "type": "error"
    },
    {
      "inputs": [
        {
          "internalType": "string",
          "name": "str",
          "type": "string"
        }
      ],
      "name": "StringTooLong",
      "type": "error"
    },
    {
      "anonymous": false,
      "inputs": [
        {
          "indexed": true,
          "internalType": "bytes32",
          "name": "auctionId",
          "type": "bytes32"
        },
        {
          "indexed": true,
          "internalType": "address",
          "name": "token",
          "type": "address"
        },
        {
          "indexed": false,
          "internalType": "address",
          "name": "highestBidder",
          "type": "address"
        },
        {
          "indexed": false,
          "internalType": "uint256",
          "name": "highestBid",
          "type": "uint256"
        }
      ],
      "name": "AuctionCancelled",
      "type": "event"
    },
    {
      "anonymous": false,
      "inputs": [
        {
          "indexed": true,
          "internalType": "bytes32",
          "name": "auctionId",
          "type": "bytes32"
        },
        {
          "indexed": true,
          "internalType": "address",
          "name": "token",
          "type": "address"
        },
        {
          "indexed": false,
          "internalType": "address",
          "name": "seller",
          "type": "address"
        },
        {
          "indexed": true,
          "internalType": "address",
          "name": "arbiter",
          "type": "address"
        },
        {
          "indexed": false,
          "internalType": "uint256",
          "name": "endsAt",
          "type": "uint256"
        },
        {
          "indexed": false,
          "internalType": "uint256",
          "name": "escrowFee",
          "type": "uint256"
        }
      ],
      "name": "AuctionCreated",
      "type": "event"
    },
    {
      "anonymous": false,
      "inputs": [
        {
          "indexed": true,
          "internalType": "bytes32",
          "name": "auctionId",
          "type": "bytes32"
        },
        {
          "indexed": true,
          "internalType": "address",
          "name": "token",
          "type": "address"
        },
        {
          "indexed": false,
          "internalType": "address",
          "name": "seller",
          "type": "address"
        },
        {
          "indexed": false,
          "internalType": "address",
          "name": "highestBidder",
          "type": "address"
        },
        {
          "indexed": false,
          "internalType": "uint256",
          "name": "highestBid",
          "type": "uint256"
        },
        {
          "indexed": false,
          "internalType": "uint256",
          "name": "escrowFee",
          "type": "uint256"
        }
      ],
      "name": "AuctionSettled",
      "type": "event"
    },
    {
      "anonymous": false,
      "inputs": [
        {
          "indexed": true,
          "internalType": "bytes32",
          "name": "auctionId",
          "type": "bytes32"
        },
        {
          "indexed": true,
          "internalType": "address",
          "name": "bidder",
          "type": "address"
        },
        {
          "indexed": true,
          "internalType": "address",
          "name": "token",
          "type": "address"
        },
        {
          "indexed": false,
          "internalType": "uint256",
          "name": "amount",
          "type": "uint256"
        },
        {
          "indexed": false,
          "internalType": "address",
          "name": "previousBidder",
          "type": "address"
        },
        {
          "indexed": false,
          "internalType": "uint256",
          "name": "previousBid",
          "type": "uint256"
        }
      ],
      "name": "BidPlaced",
      "type": "event"
    },
    {
      "anonymous": false,
      "inputs": [],
      "name": "EIP712DomainChanged",
      "type": "event"
    },
    {
      "anonymous": false,
      "inputs": [
        {
          "indexed": true,
          "internalType": "address",
          "name": "previousOwner",
          "type": "address"
        },
        {
          "indexed": true,
          "internalType": "address",
          "name": "newOwner",
          "type": "address"
        }
      ],
      "name": "OwnershipTransferred",
      "type": "event"
    },
    {
      "anonymous": false,
      "inputs": [
        {
          "indexed": true,
          "internalType": "address",
          "name": "beneficiary",
          "type": "address"
        },
        {
          "indexed": true,
          "internalType": "address",
          "name": "token",
          "type": "address"
        },
        {
          "indexed": false,
          "internalType": "address",
          "name": "destination",
          "type": "address"
        },
        {
          "indexed": false,
          "internalType": "uint256",
          "name": "amount",
          "type": "uint256"
        }
      ],
      "name": "Withdrawn",
      "type": "event"
    },
    {
      "inputs": [
        {
          "internalType": "bytes32",
          "name": "",
          "type": "bytes32"
        }
      ],
      "name": "auctions",
      "outputs": [
        {
          "internalType": "address",
          "name": "seller",
          "type": "address"
        },
        {
          "internalType": "address",
          "name": "arbiter",
          "type": "address"
        },
        {
          "internalType": "address",
          "name": "token",
          "type": "address"
        },
        {
          "internalType": "address",
          "name": "highestBidder",
          "type": "address"
        },
        {
          "internalType": "uint256",
          "name": "highestBid",
          "type": "uint256"
        },
        {
          "internalType": "uint256",
          "name": "endsAt",
          "type": "uint256"
        },
        {
          "internalType": "uint256",
          "name": "escrowFee",
          "type": "uint256"
        },
        {
          "internalType": "bool",
          "name": "settled",
          "type": "bool"
        }
      ],
      "stateMutability": "view",
      "type": "function"
    },
    {
      "inputs": [
        {
          "internalType": "address",
          "name": "",
          "type": "address"
        },
        {
          "internalType": "address",
          "name": "",
          "type": "address"
        }
      ],
      "name": "balances",
      "outputs": [
        {
          "internalType": "uint256",
          "name": "",
          "type": "uint256"
        }
      ],
      "stateMutability": "view",
      "type": "function"
    },
    {
      "inputs": [
        {
          "internalType": "bytes32",
          "name": "auctionId",
          "type": "bytes32"
        },
        {
          "internalType": "bytes",
          "name": "signature",
          "type": "bytes"
        }
      ],
      "name": "cancel",
      "outputs": [],
      "stateMutability": "nonpayable",
      "type": "function"
    },
    {
      "inputs": [],
      "name": "eip712Domain",
      "outputs": [
        {
          "internalType": "bytes1",
          "name": "fields",
          "type": "bytes1"
        },
        {
          "internalType": "string",
          "name": "name",
          "type": "string"
        },
        {
          "internalType": "string",
          "name": "version",
          "type": "string"
        },
        {
          "internalType": "uint256",
          "name": "chainId",
          "type": "uint256"
        },
        {
          "internalType": "address",
          "name": "verifyingContract",
          "type": "address"
        },
        {
          "internalType": "bytes32",
          "name": "salt",
          "type": "bytes32"
        },
        {
          "internalType": "uint256[]",
          "name": "extensions",
          "type": "uint256[]"
        }
      ],
      "stateMutability": "view",
      "type": "function"
    },
    {
      "inputs": [],
      "name": "owner",
      "outputs": [
        {
          "internalType": "address",
          "name": "",
          "type": "address"
        }
      ],
      "stateMutability": "view",
      "type": "function"
    },
    {
      "inputs": [
        {
          "internalType": "bytes32",
          "name": "auctionId",
          "type": "bytes32"
        },
        {
          "internalType": "address",
          "name": "bidder",
          "type": "address"
        },
        {
          "internalType": "address",
          "name": "seller",
          "type": "address"
        },
        {
          "internalType": "address",
          "name": "arbiter",
          "type": "address"
        },
        {
          "internalType": "address",
          "name": "token",
          "type": "address"
        },
        {
          "internalType": "uint256",
          "name": "amount",
          "type": "uint256"
        },
        {
          "internalType": "uint256",
          "name": "endsAt",
          "type": "uint256"
        },
        {
          "internalType": "uint256",
          "name": "escrowFee",
          "type": "uint256"
        }
      ],
      "name": "placeBid",
      "outputs": [],
      "stateMutability": "payable",
      "type": "function"
    },
    {
      "inputs": [
        {
          "internalType": "bytes32",
          "name": "auctionId",
          "type": "bytes32"
        },
        {
          "internalType": "bytes",
          "name": "signature",
          "type": "bytes"
        }
      ],
      "name": "settle",
      "outputs": [],
      "stateMutability": "nonpayable",
      "type": "function"
    },
    {
      "inputs": [
        {
          "internalType": "address",
          "name": "",
          "type": "address"
        }
      ],
      "name": "totalPending",
      "outputs": [
        {
          "internalType": "uint256",
          "name": "",
          "type": "uint256"
        }
      ],
      "stateMutability": "view",
      "type": "function"
    },
    {
      "inputs": [
        {
          "internalType": "address",
          "name": "newOwner",
          "type": "address"
        }
      ],
      "name": "transferOwnership",
      "outputs": [],
      "stateMutability": "nonpayable",
      "type": "function"
    },
    {
      "inputs": [
        {
          "internalType": "address",
          "name": "user",
          "type": "address"
        }
      ],
      "name": "userTokens",
      "outputs": [
        {
          "internalType": "address[]",
          "name": "",
          "type": "address[]"
        }
      ],
      "stateMutability": "view",
      "type": "function"
    },
    {
      "inputs": [
        {
          "internalType": "address",
          "name": "token",
          "type": "address"
        },
        {
          "internalType": "address",
          "name": "beneficiary",
          "type": "address"
        },
        {
          "internalType": "address",
          "name": "destination",
          "type": "address"
        },
        {
          "internalType": "bytes",
          "name": "signature",
          "type": "bytes"
        }
      ],
      "name": "withdraw",
      "outputs": [],
      "stateMutability": "nonpayable",
      "type": "function"
    },
    {
      "stateMutability": "payable",
      "type": "receive"
    }
  ],
  "bytecode": "0x610160604052348015610010575f80fd5b5060408051808201825260128152712437b9ba391026bab63a34a0bab1ba34b7b760711b602080830191909152825180840190935260018352603160f81b908301529061005d825f61013c565b6101205261006c81600161013c565b61014052815160208084019190912060e052815190820120610100524660a0526100f860e05161010051604080517f8b73c3c69bb8fe3d512ecc4cf759cc79239f7b179b0ffacaa9a75d522b39400f60208201529081019290925260608201524660808201523060a08201525f9060c00160405160208183030381529060405280519060200120905090565b60805250503060c05260017f9b779b17422d0df92223018b32b4d1fa46e071723d6817e2486d003becc55f0055600280546001600160a01b0319163317905561035e565b5f602083511015610157576101508361016e565b9050610168565b81610162848261024c565b5060ff90505b92915050565b5f80829050601f815111156101a1578260405163305a27a960e01b81526004016101989190610306565b60405180910390fd5b80516101ac8261033b565b179392505050565b634e487b7160e01b5f52604160045260245ffd5b600181811c908216806101dc57607f821691505b6020821081036101fa57634e487b7160e01b5f52602260045260245ffd5b50919050565b601f82111561024757805f5260205f20601f840160051c810160208510156102255750805b601f840160051c820191505b81811015610244575f8155600101610231565b50505b505050565b81516001600160401b03811115610265576102656101b4565b6102798161027384546101c8565b84610200565b6020601f8211600181146102ab575f83156102945750848201515b5f19600385901b1c1916600184901b178455610244565b5f84815260208120601f198516915b828110156102da57878501518255602094850194600190920191016102ba565b50848210156102f757868401515f19600387901b60f8161c191681555b50505050600190811b01905550565b602081525f82518060208401528060208501604085015e5f604082850101526040601f19601f83011684010191505092915050565b805160208083015191908110156101fa575f1960209190910360031b1b16919050565b60805160a05160c05160e051610100516101205161014051611a646103af5f395f61104901525f61101801525f61144001525f61141801525f61137301525f61139d01525f6113c70152611a645ff3fe60806040526004361061009d575f3560e01c806386385d7e1161006257806386385d7e146101f45780638da5cb5b14610207578063c1b64f741461023e578063c23f001f14610277578063ed498fa8146102ad578063f2fde38b146102d9575f80fd5b80631edbc5be146100a85780632eb423321461016e578063302bacf31461018f5780637d075efb146101ae57806384b0196e146101cd575f80fd5b366100a457005b5f80fd5b3480156100b3575f80fd5b5061011a6100c2366004611656565b600360208190525f9182526040909120805460018201546002830154938301546004840154600585015460068601546007909601546001600160a01b0395861697948616969486169590931693919290919060ff1688565b604080516001600160a01b03998a168152978916602089015295881695870195909552959092166060850152608084015260a083015260c082019290925290151560e0820152610100015b60405180910390f35b348015610179575f80fd5b5061018d6101883660046116b2565b6102f8565b005b34801561019a575f80fd5b5061018d6101a93660046116b2565b61056c565b3480156101b9575f80fd5b5061018d6101c8366004611715565b61076d565b3480156101d8575f80fd5b506101e16108e7565b60405161016597969594939291906117b4565b61018d61020236600461184a565b610929565b348015610212575f80fd5b50600254610226906001600160a01b031681565b6040516001600160a01b039091168152602001610165565b348015610249575f80fd5b506102696102583660046118be565b60076020525f908152604090205481565b604051908152602001610165565b348015610282575f80fd5b506102696102913660046118d7565b600460209081525f928352604080842090915290825290205481565b3480156102b8575f80fd5b506102cc6102c73660046118be565b610be3565b6040516101659190611908565b3480156102e4575f80fd5b5061018d6102f33660046118be565b610c56565b610300610cdc565b5f8381526003602081815260409283902083516101008101855281546001600160a01b039081168083526001840154821694830194909452600283015481169582019590955292810154909316606083015260048301546080830152600583015460a0830152600683015460c083015260079092015460ff16151560e08201529061039e576040516307145c5f60e11b815260040160405180910390fd5b8060e00151156103c157604051634f4fee1760e01b815260040160405180910390fd5b8060a001514210156103e657604051636463738960e01b815260040160405180910390fd5b61044781602001517f3bbb51304a36aca76af530db6856ff38cd5072dbfc147072a19fb29920c3ecee8660405160200161042a929190918252602082015260400190565b604051602081830303815290604052805190602001208585610cf7565b5f848152600360208190526040822080546001600160a01b0319908116825560018201805482169055600282018054821690559181018054909216909155600481018290556005810182905560068101829055600701805460ff1916905560c082015160808301516104b99190611967565b90506104cd825f0151836040015183610d60565b6104e4826020015183604001518460c00151610d60565b604080830151835160608086015160808088015160c089015187516001600160a01b0396871681529386166020850152968301529181019490945291169187917f4909511b858de0a35b31776acd56743a5b0eefad3fe353494ff19dd700178b2a910160405180910390a3505061056760015f80516020611a0f83398151915255565b505050565b610574610cdc565b5f8381526003602081815260409283902083516101008101855281546001600160a01b039081168083526001840154821694830194909452600283015481169582019590955292810154909316606083015260048301546080830152600583015460a0830152600683015460c083015260079092015460ff16151560e082015290610612576040516307145c5f60e11b815260040160405180910390fd5b8060e001511561063557604051634f4fee1760e01b815260040160405180910390fd5b61067981602001517fa7e1d4fc5b5f65b6602de9b93c837af14e96f30701bfb1af47092892215a10418660405160200161042a929190918252602082015260400190565b5f84815260036020819052604080832080546001600160a01b031990811682556001820180548216905560028201805482169055928101805490931690925560048201839055600582018390556006820192909255600701805460ff1916905560608201519082015160808301516106f2929190610d60565b80604001516001600160a01b0316847f88cbc2ae39d8c0778da465dd1b86bab6ef55c10bc0a0d4ccd42e0b835e371ee98360600151846080015160405161074e9291906001600160a01b03929092168252602082015260400190565b60405180910390a35061056760015f80516020611a0f83398151915255565b610775610cdc565b6107e5847f9e4e8028071c202ab032dcdb0b97cb872ad34aed0c18fe44cd759252daacd38f87866040516020016107c8939291909283526001600160a01b03918216602084015216604082015260600190565b604051602081830303815290604052805190602001208484610cf7565b6001600160a01b038085165f9081526004602090815260408083209389168352929052908120549081900361082d57604051630686827b60e51b815260040160405180910390fd5b6001600160a01b038086165f908152600460209081526040808320938a16835292815282822082905560079052908120805483929061086d908490611967565b9091555061087e9050868583610e72565b604080516001600160a01b0386811682526020820184905280891692908816917fa4195c37c2947bbe89165f03e320b6903116f0b10d8cfdb522330f7ce6f9fa24910160405180910390a3506108e060015f80516020611a0f83398151915255565b5050505050565b5f6060805f805f60606108f8611011565b610900611042565b604080515f80825260208201909252600f60f81b9b939a50919850469750309650945092509050565b610931610cdc565b6001600160a01b03871661095857604051630863b10360e01b815260040160405180910390fd5b8142106109785760405163283a4a6160e21b815260040160405180910390fd5b8281111561099957604051631d27ff1d60e11b815260040160405180910390fd5b5f88815260036020526040902080546001600160a01b0316610a4a5780546001600160a01b038881166001600160a01b0319928316811784556001840180548a84169085168117909155600285018054938a169390941683179093556005840186905560068401859055604080519182526020820187905281018590528b907feb5e5fdeda85f111d7f0f17dc736381d7804f2b6e6356e941eee361862771de79060600160405180910390a4610af3565b600781015460ff1615610a7057604051634f4fee1760e01b815260040160405180910390fd5b80546001600160a01b038881169116141580610a9c575060018101546001600160a01b03878116911614155b80610ab7575060028101546001600160a01b03868116911614155b80610ac6575082816005015414155b80610ad5575081816006015414155b15610af35760405163203720db60e21b815260040160405180910390fd5b80600401548411610b1757604051635069375b60e11b815260040160405180910390fd5b600381015460048201546001600160a01b0390911690610b38878b8861106f565b6003830180546001600160a01b0319166001600160a01b038c16179055600483018690558015610b6d57610b6d828883610d60565b604080518781526001600160a01b038481166020830152918101839052818916918c16908d907fe8ad6b7ad6d1a6b90988bea88bb086d3bda7348597f0a2c855a5dbe170c46e8d9060600160405180910390a4505050610bd960015f80516020611a0f83398151915255565b5050505050505050565b6001600160a01b0381165f90815260056020908152604091829020805483518184028101840190945280845260609392830182828015610c4a57602002820191905f5260205f20905b81546001600160a01b03168152600190910190602001808311610c2c575b50505050509050919050565b6002546001600160a01b03163314610c8157604051635fc483c560e01b815260040160405180910390fd5b6002546040516001600160a01b038084169216907f8be0079c531659141344cd1fd0a4f28419497f9722a3daafe3b4186f6b6457e0905f90a3600280546001600160a01b0319166001600160a01b0392909216919091179055565b610ce46110c8565b60025f80516020611a0f83398151915255565b5f610d01846110f9565b9050610d43858285858080601f0160208091040260200160405190810160405280939291908181526020018383808284375f9201919091525061112b92505050565b6108e057604051638baa579f60e01b815260040160405180910390fd5b801580610d7457506001600160a01b038316155b15610d7e57505050565b6001600160a01b038084165f90815260046020908152604080832093861683529290529081208054839290610db490849061197a565b90915550506001600160a01b038084165f9081526006602090815260408083209386168352929052205460ff16610e41576001600160a01b038084165f818152600660209081526040808320948716808452948252808320805460ff1916600190811790915593835260058252822080549384018155825290200180546001600160a01b03191690911790555b6001600160a01b0382165f9081526007602052604081208054839290610e6890849061197a565b9091555050505050565b805f03610e7e57505050565b6001600160a01b038316610f02575f826001600160a01b0316826040515f6040518083038185875af1925050503d805f8114610ed5576040519150601f19603f3d011682016040523d82523d5f602084013e610eda565b606091505b5050905080610efc57604051633d2cec6f60e21b815260040160405180910390fd5b50505050565b826001600160a01b03163b5f03610f2c576040516309ee12d560e01b815260040160405180910390fd5b604080516001600160a01b038481166024830152604480830185905283518084039091018152606490920183526020820180516001600160e01b031663a9059cbb60e01b17905291515f92839290871691610f87919061198d565b5f604051808303815f865af19150503d805f8114610fc0576040519150601f19603f3d011682016040523d82523d5f602084013e610fc5565b606091505b5091509150811580610ff357505f8151118015610ff3575080806020019051810190610ff191906119a3565b155b156108e057604051633c9fd93960e21b815260040160405180910390fd5b606061103d7f00000000000000000000000000000000000000000000000000000000000000005f61119e565b905090565b606061103d7f0000000000000000000000000000000000000000000000000000000000000000600161119e565b6001600160a01b03831661109d57803414610567576040516341c1a62f60e11b815260040160405180910390fd5b34156110bc576040516341c1a62f60e11b815260040160405180910390fd5b61056783833084611248565b5f80516020611a0f833981519152546002036110f757604051633ee5aeb560e01b815260040160405180910390fd5b565b5f611125611105611367565b8360405161190160f01b8152600281019290925260228201526042902090565b92915050565b5f836001600160a01b03163b5f03611189575f806111498585611490565b5090925090505f816003811115611162576111626119c2565b1480156111805750856001600160a01b0316826001600160a01b0316145b92505050611197565b6111948484846114d9565b90505b9392505050565b606060ff83146111b8576111b18361152a565b9050611125565b8180546111c4906119d6565b80601f01602080910402602001604051908101604052809291908181526020018280546111f0906119d6565b801561123b5780601f106112125761010080835404028352916020019161123b565b820191905f5260205f20905b81548152906001019060200180831161121e57829003601f168201915b5050505050905092915050565b836001600160a01b03163b5f03611272576040516309ee12d560e01b815260040160405180910390fd5b604080516001600160a01b0385811660248301528481166044830152606480830185905283518084039091018152608490920183526020820180516001600160e01b03166323b872dd60e01b17905291515f928392908816916112d5919061198d565b5f604051808303815f865af19150503d805f811461130e576040519150601f19603f3d011682016040523d82523d5f602084013e611313565b606091505b509150915081158061134157505f815111801561134157508080602001905181019061133f91906119a3565b155b1561135f57604051633c9fd93960e21b815260040160405180910390fd5b505050505050565b5f306001600160a01b037f0000000000000000000000000000000000000000000000000000000000000000161480156113bf57507f000000000000000000000000000000000000000000000000000000000000000046145b156113e957507f000000000000000000000000000000000000000000000000000000000000000090565b61103d604080517f8b73c3c69bb8fe3d512ecc4cf759cc79239f7b179b0ffacaa9a75d522b39400f60208201527f0000000000000000000000000000000000000000000000000000000000000000918101919091527f000000000000000000000000000000000000000000000000000000000000000060608201524660808201523060a08201525f9060c00160405160208183030381529060405280519060200120905090565b5f805f83516041036114c7576020840151604085015160608601515f1a6114b988828585611567565b9550955095505050506114d2565b505081515f91506002905b9250925092565b805160408051630b135d3f60e11b8082526004820186905260248201929092525f92906020820185604483015e60205f60648401838a5afa9050825f5114601f3d1116811693505050509392505050565b60605f6115368361162f565b6040805160208082528183019092529192505f91906020820181803683375050509182525060208101929092525090565b5f80807f7fffffffffffffffffffffffffffffff5d576e7357a4501ddfe92f46681b20a08411156115a057505f91506003905082611625565b604080515f808252602082018084528a905260ff891692820192909252606081018790526080810186905260019060a0016020604051602081039080840390855afa1580156115f1573d5f803e3d5ffd5b5050604051601f1901519150506001600160a01b03811661161c57505f925060019150829050611625565b92505f91508190505b9450945094915050565b5f60ff8216601f81111561112557604051632cd44ac360e21b815260040160405180910390fd5b5f60208284031215611666575f80fd5b5035919050565b5f8083601f84011261167d575f80fd5b50813567ffffffffffffffff811115611694575f80fd5b6020830191508360208285010111156116ab575f80fd5b9250929050565b5f805f604084860312156116c4575f80fd5b83359250602084013567ffffffffffffffff8111156116e1575f80fd5b6116ed8682870161166d565b9497909650939450505050565b80356001600160a01b0381168114611710575f80fd5b919050565b5f805f805f60808688031215611729575f80fd5b611732866116fa565b9450611740602087016116fa565b935061174e604087016116fa565b9250606086013567ffffffffffffffff811115611769575f80fd5b6117758882890161166d565b969995985093965092949392505050565b5f81518084528060208401602086015e5f602082860101526020601f19601f83011685010191505092915050565b60ff60f81b8816815260e060208201525f6117d260e0830189611786565b82810360408401526117e48189611786565b606084018890526001600160a01b038716608085015260a0840186905283810360c0850152845180825260208087019350909101905f5b8181101561183957835183526020938401939092019160010161181b565b50909b9a5050505050505050505050565b5f805f805f805f80610100898b031215611862575f80fd5b8835975061187260208a016116fa565b965061188060408a016116fa565b955061188e60608a016116fa565b945061189c60808a016116fa565b979a969950949793969560a0850135955060c08501359460e001359350915050565b5f602082840312156118ce575f80fd5b611197826116fa565b5f80604083850312156118e8575f80fd5b6118f1836116fa565b91506118ff602084016116fa565b90509250929050565b602080825282518282018190525f918401906040840190835b818110156119485783516001600160a01b0316835260209384019390920191600101611921565b509095945050505050565b634e487b7160e01b5f52601160045260245ffd5b8181038181111561112557611125611953565b8082018082111561112557611125611953565b5f82518060208501845e5f920191825250919050565b5f602082840312156119b3575f80fd5b81518015158114611197575f80fd5b634e487b7160e01b5f52602160045260245ffd5b600181811c908216806119ea57607f821691505b602082108103611a0857634e487b7160e01b5f52602260045260245ffd5b5091905056fe9b779b17422d0df92223018b32b4d1fa46e071723d6817e2486d003becc55f00a26469706673582212204543e3fb6a9d6f1a3b07d9896bdbd018294c63891db6dd8810929699276930a964736f6c634300081a0033",
  "linkReferences": {},
  "deployedLinkReferences": {}
}